:0A082D003F065B4F666D7D077F6F8D
:10076200081F0000000000000000013D00042741B6
:10077200700000041B4140000004173FCCCCCD02A6
:1007820033000002150000022F00000239000002AF
:0E079200310000020B000A01080002090000FD
:0E0812001207A11206E31205BA1207D080F5F4
:1003F000C3E5169532F53CE5159531F53BC3E53C73
:100400009512FDE53B9511FC1202C1AB2AAA29A960
:1004100028A827120116C004C005C006C007AC3BBF
:10042000AD3CEC1202C1AB1EAA1DA91CA81B1201F7
:1004300016D003D002D001D000120025C004C005A0
:10044000C006C007E51225E0FFE51133FEC3E53C19
:100450009FCFE53B9ECF2514FDEF3513FC1202C163
:10046000AB1AAA19A918A817120116D003D002D0E6
:1004700001D000120025E4FBFA7948784212021FED
:100480008F2E8E2D8D2C8C2BAB10AA0FA90EA80DA4
:100490001200258F388E378D368C351202FA8E3346
:1004A0008F34D3E53494E8E5336480948340087551
:1004B00033037534E8800EC3E533648094805005BF
:1004C000E4F533F53485381085370F85360E8535DC
:1004D0000D851113851214853B11853C1285330B54
:0404E00085340C2231
:1007F2007E00D3EF9400EE940040147D327C00ED35
:0F0802001D70011CED4C70F7EF1F70E61E80E3B8
:0108110022C4
:1007D000C3E530950CE52F950B5004D2908002C2F2
:1007E00090D3E53094E8E52F94034005E4F52FF528
:0207F0003022B5
:1007A100758921758CF9758A0F758DC0758BC0D2CD
:1007B100ABD2A9D28CD28ED2A8D288D2AFE4F53BEB
:0F07C100F53CF511F512F513F514D2B0C2B122C3
:1006E3002091247FC81207F220911C740A2516F565
:1006F30016E43515F515D3E51694DCE51594054098
:10070300067515057516DC20921E7FC81207F220A8
:10071300921674F62516F51674FF3515F515C39460
:10072300005005E4F515F51620930F7FC81207F264
:10073300209307D2B0C2B13093FD20940F7FC8122B
:1007430007F2209407C2B0D2B13094FD20950F7FF9
:0F075300C81207F2209507D2B0D2B13095FD221F
:1005BA00AE15AF167C037DE812038D8F1FAE15AF03
:1005CA00167C037DE812038D7E007F64CFCDCFCEEB
:1005DA00CCCE12038D8F20AE15AF167C007D64122F
:1005EA00038D7E007F0ACFCDCFCECCCE12038D8F66
:1005FA0021AE15AF167C007D0A12038D8D22AE3115
:10060A00AF327C037DE812038D8F23AE31AF327C8B
:10061A00037DE812038D7E007F64CFCDCFCECCCE92
:10062A0012038D8F24AE31AF327C007D6412038DAC
:10063A007E007F0ACFCDCFCECCCE12038D8F25AED2
:0D064A0031AF327C007D0A12038D8D262217
:0300030002000EEA
:0D000E00C0E0053AE53A70020539D0E03255
:03000B000204E408
:1004E400C0E0C0F0C083C082C0D075D000C000C0DE
:0D04F40001C002C003C004C005C006C0075F
:10050100758CF9758A0F0508050AE50A7002050957
:10051100E508D3940840037508007580FF741F2512
:1005210008F8E690082D93F5A0E508B408005045B9
:10053100900538F828287302055002055502055A1E
:1005410002055F02056402056902056E0205737505
:10055100807F80217580BF801C7580DF801775804A
:10056100EF80127580F7800D7580FB80087580FD26
:1005710080037580FED3E50A9464E5099400401E6A
:10058100750900750A00AE39AF3A7C007D0512038A
:0E0591007B8E318F32753900753A001203F0FF
:10059F00D007D006D005D004D003D002D001D000B0
:0B05AF00D0D0D082D083D0F0D0E0325A
:03001B00020820B8
:0D082000C0E00530E5307002052FD0E03259
:10001E00020366E86480F8E933E83360110460F0A7
:10002E00ED33EC337009E8FCE9FDEAFEEBFF220448
:10003E0060DED3EB9FEA9EE99DE8C2E78CF0C2F743
:10004E0095F0400CE8CCF8E9CDF9EACEFAEBCFFB0F
:10005E0012033185D0F05804700320D5B3E8047034
:10006E00075002B2D502037092D5EC0460F7E4CCCF
:10007E00C0E0C398F8603B94186008400DD0E0FBD8
:10008E00020348E4FBFAC9FC8028E830E406E4C920
:10009E00FBE4CAFCE830E305E4C9CACBFCE854072C
:1000AE006010F8C3E913F9EA13FAEB13FBEC13FC37
:1000BE00D8F130F52FC3E49CFCEF9BFFEE9AFEEDDA
:1000CE0099FDD0E0FBEF4E4D4C701222DB03020384
:1000DE006DEC2CFCEF33FFEE33FEED33FDED30E730
:1000EE00EB020348EF2BFFEE3AFEED39FDD0E0FBBD
:1000FE0050130BBB0003020370ED13FDEE13FEEF66
:08010E0013FFEC13FC0203488F
:10011600EC4D6011E8497017ED33EC3304600DE4E3
:10012600FCFFFEFD22E933E8330470F80203661291
:10013600033158046009E4CC248150062850090292
:10014600037028400302036DC0E0EB4A7044B98097
:1001560006D0E0FB02035CEF4E701CBD8008EBFF8F
:10016600EAFEE9FD80EBE98DF0A4FEE5F00201FF71
:10017600E9CDF9EAFEEBFFEF89F0A4FCE5F0CE89C4
:10018600F0A42EFFE435F0CD89F0A42DFEE435F081
:100196008067EF4E7005BD80D780C3EF8BF0A4ACAF
:1001A600F0EE8BF0A42CFCE435F0F8EF8AF0A42CEA
:1001B600E5F038FCE433CB8DF0A42CFCE5F03BF8FD
:1001C600EE8AF0A42CFCE5F038F8E433CF89F0A4ED
:1001D6002CFCE5F038CF3400CE89F0A42FFFE5F0F3
:1001E6003EFEE433C98DF0A42EFEE5F039CD8AF04B
:1001F600A42FFFE5F03EFEE43DFD33D0E0FB5007C3
:100206000BBB000F020370EC2CFCEF33FFEE33FE4A
:06021600ED33FD02034878
:10021C00020370EC5D046005E85904700302036688
:10022C00120331580460F6EC4860F2EC7004FDFEE9
:10023C00FF22C860DB2481C85009C39860025006B5
:10024C0002036D9850CAF582E9294B4A7005AB82BE
:10025C0002035C75F0007C1A7880C3EF9BEE9AED7C
:10026C0099400DC3EF9BFFEE9AFEED99FDE842F02D
:10027C00DC23ACF0D0E0FFD0E0FED0E0FDAB822080
:10028C00E7101BEB60BAEC2CFCEF33FFEE33FEED0A
:10029C0033FD020348E803F830E705C0F075F000C1
:1002AC00EF2FFFEE33FEED33FD40B830E7C280AAEE
:1002BC0075F020800E75F010800575F0087D007EBD
:1002CC00007F003392D530D5031203E2EC3340109B
:1002DC00EF33FFEE33FEED33FDEC33FCD5F0ED22C6
:0E02EC00E5F0247EA2D513CC92E7CDCEFF2202
:1002FA00EDD2E7CD33EC3392D524814006E4FFFEFC
:10030A00FDFC22FCE4CFCECDCC24E0501174FF805A
:10031A00EDC3CC13CCCD13CDCE13CECF13CF0470F7
:07032A00F030D5DE0203E212
:10033100E9D2E7C933E833F892D5EDD2E7CD33EC12
:0703410033FC5002B2D5228B
:10034800EC30E7100FBF000C0EBE00080DBD000416
:100358000BEB6014A2D5EB13FCED92E7FD2274FFC2
:10036800FCFDFEFF22E480F8A2D574FF13FC7D801B
:03037800E480EF2F
:030000000206579E
:0C065700787FE4F6D8FD75813D02069E18
:10037B00EF8DF0A4A8F0CF8CF0A428CE8DF0A42E96
:02038B00FE2250
:10038D00BC000BBE0029EF8DF084FFADF022E4CC54
:10039D00F875F008EF2FFFEE33FEEC33FCEE9DEC1D
:1003AD00984005FCEE9DFE0FD5F0E9E4CEFD22ED63
:1003BD00F8F5F0EE8420D21CFEADF075F008EF2FAD
:1003CD00FFED33FD4007985006D5F0F222C398FD9E
:0503DD000FD5F0EA223B
:0E03E200C3E49FFFE49EFEE49DFDE49CFC222C
:10066300020812E493A3F8E493A34003F68001F293
:1006730008DFF48029E493A3F85407240CC8C33398
:10068300C4540F4420C8834004F456800146F6DF67
:10069300E4800B0102040810204080900762E47E8E
:1006A300019360BCA3FF543F30E509541FFEE4935C
:1006B300A360010ECF54C025E060A840B8E493A323
:1006C300FAE493A3F8E493A3C8C582C8CAC583CA4E
:1006D300F0A3C8C582C8CAC583CADFE9DEE780BE06
:0107A0000058
:00000001FF
